:100000000C9434000C9451000C9451000C94510049
:100010000C9451000C9451000C9451000C9451001C
:100020000C9451000C9451000C9451000C9451000C
:100030000C9451000C9451000C94B2000C9451009B
:100040000C9451000C9451000C9405010C94510037
:100050000C9451000C9451000C9451000C945100DC
:100060000C9451000C94510011241FBECFEFD8E026
:10007000DEBFCDBF11E0A0E0B1E0E0EBF2E002C0F6
:1000800005900D92A238B107D9F721E0A2E8B1E0BE
:1000900001C01D92AA3AB207E1F70E948F000C94AA
:1000A00056010C940000CF93DF93EC016BE471E0F8
:1000B0000E944D01892B29F482E591E00E941401F0
:1000C0002BC06BE571E0CE010E944D01892B29F414
:1000D00083E691E00E9414011FC06DE671E0CE013D
:1000E0000E944D01892B29F482E791E00E941401BE
:1000F00013C069E771E0CE010E944D01892B29F4FC
:1001000083E491E00E94140107C0CE010E94140113
:100110008AE691E00E941401DF91CF9108950E9438
:10012000AA0087E690E00E94E4008FE791E00E9439
:1001300014010E944001FDCF84B5826084BD89EF27
:1001400087BD85B5836085BDEEE6F0E08081826085
:1001500080830895F89483E084B915B80E949C00C8
:10016000789408951F920F920FB60F9211242F9337
:100170008F939F93F89480918801909189010196C3
:1001800090938901809388018091880190918901E1
:10019000883E934080F0809186019091870101967E
:1001A00090938701809386011092890110928801B3
:1001B00081E08093820178949F918F912F910F908D
:1001C0000FBE0F901F9018959093C5008093C400A8
:1001D000E1ECF0E0808188618083808180688083A9
:1001E000E2ECF0E080818E608083789408959091B5
:1001F000C00095FFFCCF8093C60008958091C00099
:100200008823E4F78091C60008951F920F920FB6DD
:100210000F9211248F9381E08093A8018F910F900A
:100220000FBE0F901F9018950F931F93CF938C01C3
:10023000C0E003C00E94F700CF5FF801EC0FF11D92
:1002400080818111F7CFCF911F910F9108950F9366
:100250001F93CF938C01C0E009C00E94FE008D3037
:1002600039F0F801EC0FF11D8083CF5FC133A8F3A3
:10027000F801EC0FF11D1082CF911F910F9108959D
:100280008091A801813041F48EE991E00E9427011C
:100290008EE991E00E9453000895FB01DC018D91ED
:1002A000019080190110D9F3990B0895F894FFCFAC
:1002B0000A0D3E3E000A0D436F6D656E7A693A0A7B
:1002C0000D20312E206D656E69750A0D20322E20AD
:1002D00074696D700A0D20332E206C6564206F6E7A
:1002E0000A0D20342E206C6564206F66660A0D208E
:1002F000352E20636C6561720A0D006C6564206F99
:100300006E006C6564206F6E0A0D006C6564206F72
:100310006666006C6564206F66660A0D0074696D20
:10032000700074696D700A0D00636C656172001B6A
:02033000630068
:00000001FF
