:100000000C9434000C9451000C9451000C94510049
:100010000C9451000C9451000C9451000C9451001C
:100020000C9451000C9451000C9451000C9451000C
:100030000C9451000C9451000C94BF000C9451008E
:100040000C9451000C9451000C9444010C945100F8
:100050000C9451000C9451000C9451000C945100DC
:100060000C9451000C94510011241FBECFEFD8E026
:10007000DEBFCDBF11E0A0E0B1E0E6EDF2E002C0EE
:1000800005900D92A839B107D9F721E0A8E9B1E0B0
:1000900001C01D92AA3EB207E1F70E949C000C9499
:1000A00069010C940000CF93DF93EC016BE471E0E5
:1000B0000E946001892B29F48DE491E00E941801CF
:1000C00038C066E571E0CE010E946001892B29F4F9
:1000D00088E591E00E9418012CC062E671E0CE0133
:1000E0000E946001892B29F487E691E00E941801A3
:1000F00020C06EE671E0CE010E946001892B49F4B8
:1001000084E791E00E94180185E991E00E941801BE
:1001100010C067E771E0CE010E946001892B29F4CD
:1001200083E491E00E94180104C083E891E00E94FA
:100130001801DF91CF9108950E94B70087E690E003
:100140000E94F70084E791E00E9418010E94530189
:10015000FDCF84B5826084BD89EF87BD85B583609E
:1001600085BDEEE6F0E08081826080830895F8949A
:1001700083E084B915B80E94A900789408951F926D
:100180000F920FB60F9211242F938F939F93F89491
:100190008091A0019091A10101969093A10180937B
:1001A000A00180919A0190919B01019690939B01EF
:1001B00080939A018091A0019091A101883E934083
:1001C00068F080919E0190919F01019690939F010C
:1001D00080939E011092A1011092A00178949F91AA
:1001E0008F912F910F900FBE0F901F9018959093A5
:1001F000C5008093C400E1ECF0E0808188618083D9
:10020000808180688083E2ECF0E080818E60808372
:10021000789408959091C00095FFFCCF8093C6001C
:1002200008958091C0008823E4F78091C600089566
:100230000F931F93CF938C01C0E003C00E940A016B
:10024000CF5FF801EC0FF11D80818111F7CFCF91C5
:100250001F910F9108950F931F93CF938C01C0E0CE
:1002600009C00E9411018D3039F0F801EC0FF11D29
:100270008083CF5FC133A8F3F801EC0FF11D10822A
:10028000CF911F910F9108951F920F920FB60F9269
:1002900011248F9381E08093E9018F910F900FBE1D
:1002A0000F901F9018958091E901813041F487EB00
:1002B00091E00E942B0187EB91E00E94530008958A
:1002C000FB01DC018D91019080190110D9F3990B8C
:0602D0000895F894FFCF31
:1002D6000A0D3E3E000A0D436F6D656E7A693A0A55
:1002E6000D20312E206D656E69750A0D20322E2087
:1002F60074696D700A0D20332E206C6564206F6E54
:100306000A0D20342E206C6564206F66660A0D2067
:10031600352E20636C6561720A0D0031004C454430
:10032600204F4E0A0D0032004C4544204F46460AE7
:100336000D0074696D700074696D700A0D00636C50
:10034600656172001B6300636C65617220736C618A
:100356007665006E752065737465206F20636F6D1A
:08036600616E6461210A0D00C3
:00000001FF
