:100000000C9434000C9451000C9451000C94510049
:100010000C9451000C9451000C9451000C9451001C
:100020000C9451000C9451000C9451000C9451000C
:100030000C9451000C9451000C94D5000C94510078
:100040000C9451000C9451000C945D010C945100DF
:100050000C9451000C9451000C9451000C945100DC
:100060000C9451000C94510011241FBECFEFD8E026
:10007000DEBFCDBF11E0A0E0B1E0E8E2F3E002C0F6
:1000800005900D92A839B107D9F721E0A8E9B1E0B0
:1000900001C01D92AF3BB207E1F70E94B0000C9483
:1000A00092010C94000081E091E00E9428010895E3
:1000B00087E091E00E942801089580919A018130A3
:1000C00051F485B1816085B98EE491E00E942801E8
:1000D0000E945300089585B18E7F85B983E591E034
:1000E0000E9428010E9453000895CF93DF93EC01F2
:1000F00069E571E00E948901892B59F48FE591E04F
:100100000E9428010E9458000E94530010929801FA
:1001100024C062E671E0CE010E948901892B21F49E
:1001200081E08093980119C067E671E0CE010E94DA
:100130008901892B51F481E090919A01911180E01D
:1001400080939A010E945D0008C08EE691E00E94B3
:1001500028010E9458000E945300DF91CF9108951A
:100160000E94CD0087E690E00E9407018FE591E0B4
:100170000E9428010E9458000E945300FFCF84B5BE
:10018000826084BD89EF87BD85B5836085BDEEE65D
:10019000F0E08081826080830895F89483E084B9E0
:1001A00015B80E94BF00789408951F920F920FB661
:1001B0000F9211242F938F939F93F89480919F0116
:1001C0009091A00101969093A00180939F0180914E
:1001D0009F019091A001883E934080F080919D0105
:1001E00090919E01019690939E0180939D011092A3
:1001F000A00110929F0181E08093990178949F91D2
:100200008F912F910F900FBE0F901F901895909384
:10021000C5008093C400E1ECF0E0808188618083B8
:100220008081806E8083E2ECF0E080818E6080834C
:10023000789408959091C00095FFFCCF8093C600FC
:1002400008958091C0008823E4F78091C600089546
:100250000F931F93CF938C01C0E003C00E941A013B
:10026000CF5FF801EC0FF11D80818111F7CFCF91A5
:100270001F910F9108950F931F93CF93DF938C01DC
:10028000D62FC0E009C00E9421018D3069F0F8012D
:10029000EC0FF11D8083CF5F2C2F30E08D2F90E08D
:1002A0000197281739077CF3F801EC0FF11D108234
:1002B000DF91CF911F910F9108951F920F920FB66A
:1002C0000F9211242F933F934F935F936F937F93DC
:1002D0008F939F93AF93BF93EF93FF936091000130
:1002E00085EB91E00E943B0185EB91E00E94750057
:1002F000FF91EF91BF91AF919F918F917F916F91FE
:100300005F914F913F912F910F900FBE0F901F90D3
:100310001895FB01DC018D91019080190110D9F332
:08032000990B0895F894FFCF3A
:10032800320A0D3E3E20000A0D417061736120744F
:10033800617374613A0A0D20312E204D656E69751E
:100348000A0D20322E204166697361726520746936
:100358006D700A0D20332E20536368696D626172D7
:1003680065207374617265204C45440A0D004F4E38
:100378000A0D004F46460A0D006D656E6975001B33
:10038800630074696D70006C6564206F6E00436F64
:100398006D616E646120696E636F7265637461215B
:1003A8000A0D000A0D2054696D703A20003A300099
:0803B8003A000A0D0A0D0000D5
:00000001FF
