S00B00005350492E737265632D
S11300000C9434000C9451000C9451000C94510045
S11300100C9451000C9451000C9451000C94510018
S11300200C9451000C9451000C9451000C94510008
S11300300C9451000C9451000C94BE000C9451008B
S11300400C9451000C9451000C944D010C943E01FD
S11300500C9451000C9451000C9451000C945100D8
S11300600C9451000C94510011241FBECFEFD8E022
S1130070DEBFCDBF11E0A0E0B1E0ECE6F3E002C0EA
S113008005900D92A231B107D9F721E0A2E1B1E0C8
S113009001C01D92A23EB207E1F70E9453000C94E6
S11300A0B4010C9400000E946A0087E690E00E946C
S11300B02B010E946F00FDCF84B5826084BD89EF5F
S11300C087BD85B5836085BDEEE6F0E08081826002
S11300D080830895F8940E945C0078940895809138
S11300E01601909117014AE06EE771E00E947F01CA
S11300F080911401909115014AE06AE171E00E9437
S11301007F01809113018130C1F580E091E00E946C
S1130110610183E091E00E9461018091140190915A
S113012015010A9748F48AE091E00E9461018AE18E
S113013091E00E94610108C088E091E00E946101A1
S11301408AE191E00E94610180911601909117016A
S11301500B9748F48DE091E00E9461018EE791E0F5
S11301600E94610108C080E191E00E9461018EE774
S113017091E00E9461011092130108951F920F9261
S11301800FB60F9211242F933F934F935F936F9366
S11301907F938F939F93AF93BF93F89480911801AB
S11301A090911901019690931901809318018091FF
S11301B0180190911901883E9340E8F1809116014D
S11301C0909117010196909317018093160181E095
S11301D08093130110921901109218018091160155
S11301E090911701CC9738F1409116015091170165
S11301F09A01A9E8B8E80E947001969587959295AE
S113020082958F7089279F7089276CE3689F90017E
S1130210699F300D1124CA01821B930B909317011F
S11302208093160180911401909115010196909389
S11302301501809314017894BF91AF919F918F9190
S11302407F916F915F914F913F912F910F900FBECE
S11302500F901F9018959093C5008093C400E1EC13
S1130260F0E08081886180838081806A8083E2EC11
S1130270F0E080818E608083789408951F920F92BD
S11302800FB60F9211248F9381E0809312018F9106
S11302900F900FBE0F901F9018951F920F920FB6DC
S11302A00F9211248F93EF93FF93E6ECF0E080819B
S11302B08083FF91EF918F910F900FBE0F901F904D
S11302C01895FC0109C020911201213029F4909362
S11302D0C60031961092120190819111F4CF0895C5
S11302E0A29FB001B39FC001A39F700D811D112473
S11302F0911DB29F700D811D1124911D0895BB277E
S11303004A3031F4992322F4BDE2909581959F4FB0
S11303100C948B01BB27FB015527AA27880F991F33
S1130320AA1FA41710F0A41B83955051B9F7A05D20
S1130330AA3308F0A95DA193009779F7B111B1939D
S11303401192CB010C94A401DC01FC01672F719183
S11303507723E1F7329704C07C916D9370836291A7
S10F0360AE17BF07C8F30895F894FFCF50
S113036C1B630054696D703A20002030003A300051
S105037C3A0041
S9030000FC
