:100000000C9434000C9451000C9451000C94510049
:100010000C9451000C9451000C9451000C9451001C
:100020000C9451000C9451000C9451000C9451000C
:100030000C9451000C9451000C9471000C945100DC
:100040000C9451000C9451000C9451000C945100EC
:100050000C9451000C9451000C9451000C945100DC
:100060000C9451000C94510011241FBECFEFD8E026
:10007000DEBFCDBF11E0A0E0B1E0E2E2F2E002C0FD
:1000800005900D92A031B107D9F721E0A0E1B1E0D0
:1000900001C01D92A831B207E1F70E9453000C94F1
:1000A0000F010C9400000E946C0067E670E080E095
:1000B00090E00E94C8000E94BD00FDCF84B5826020
:1000C00084BD89EF87BD85B5836085BDEEE6F0E030
:1000D0008081826080830895F8940E945E00789405
:1000E00008951F920F920FB60F9211242F933F93F2
:1000F0005F936F937F938F939F93AF93BF93F89486
:1001000080911401909115010196909315018093AF
:100110001401883E934014F18091120190911301D3
:100120000196909313018093120110921501109281
:1001300014018C33910594F020911001309111013C
:100140002F5F3F4F30931101209310016CE370E05B
:100150000E94E70090931301809312017894BF915D
:10016000AF919F918F917F916F915F913F912F916F
:100170000F900FBE0F901F901895809112019091D3
:1001800013010A9721F480E091E00E94DA000895BB
:100190009093C5008093C40088E18093C1008EE0F5
:1001A0008093C20008959091C00095FFFCCF80938A
:1001B000C6000895CF93DF93EC0103C00E94D300E3
:1001C000219688818111FACFDF91CF91089597FB15
:1001D000072E16F4009407D077FD09D00E94FB008B
:1001E00007FC05D03EF4909581959F4F089570953A
:1001F00061957F4F0895AA1BBB1B51E107C0AA1F41
:10020000BB1FA617B70710F0A61BB70B881F991FB7
:100210005A95A9F780959095BC01CD010895F89461
:02022000FFCF0E
:10022200736563756E6465203D2031300D0A0000F0
:00000001FF
