:100000000C9434000C9451000C9451000C94510049
:100010000C9451000C9451000C9451000C9451001C
:100020000C9451000C9451000C9451000C9451000C
:100030000C9451000C9451000C94FC000C94510051
:100040000C9451000C9451000C9463010C945401D5
:100050000C9451000C9451000C9451000C945100DC
:100060000C9451000C94510011241FBECFEFD8E026
:10007000DEBFCDBF11E0A0E0B1E0EAE7F3E002C0EF
:1000800005900D92A231B107D9F721E0A2E1B1E0CC
:1000900001C01D92A23EB207E1F70E9453000C94EA
:1000A000BB010C9400000E946A0087E690E00E9469
:1000B00041010E946F00FDCF84B5826084BD89EF4D
:1000C00087BD85B5836085BDEEE6F0E08081826006
:1000D00080830895F8940E945C007894089580913C
:1000E0001601909117014AE06EE771E00E948601C7
:1000F00080911401909115014AE06AE171E00E943B
:10010000860180911301813009F075C080E091E093
:100110000E94770183E091E00E94770180911601AF
:10012000909117010B97B8F48091140190911501EB
:100130000B9788F48AE091E00E9477018AE191E0D0
:100140000E9477018DE091E00E9477018EE791E0B7
:100150000E9477014EC080911601909117010B9774
:1001600098F480911401909115010B9768F08AE141
:1001700091E00E9477018DE091E00E9477018EE787
:1001800091E00E94770135C080911601909117018E
:100190000B97B8F080911401909115010B9788F49A
:1001A0008AE091E00E9477018AE191E00E94770164
:1001B00080E191E00E9477018EE791E00E94770153
:1001C00018C080911601909117010B9790F08091C3
:1001D0001401909115010B9760F08AE191E00E9463
:1001E000770180E191E00E9477018EE791E00E9423
:1001F00077011092130108951F920F920FB60F927C
:1002000011242F938F939F93F894809118019091CC
:10021000190101969093190180931801809118019A
:1002200090911901883E934018F1809116019091A8
:1002300017010196909317018093160181E0809336
:1002400013011092190110921801809116019091DA
:100250001701CC9768F080911401909115010196D7
:1002600090931501809314011092170110921601BA
:1002700078949F918F912F910F900FBE0F901F90A8
:1002800018959093C5008093C400E1ECF0E0808164
:10029000886180838081806A8083E2ECF0E08081E5
:1002A0008E608083789408951F920F920FB60F92FC
:1002B00011248F9381E0809312018F910F900FBED4
:1002C0000F901F9018951F920F920FB60F92112446
:1002D0008F93EF93FF93E6ECF0E080818083FF91B2
:1002E000EF918F910F900FBE0F901F901895FC010A
:1002F00009C020911201213029F49093C600319653
:100300001092120190819111F4CF0895BB274A30C9
:1003100031F4992322F4BDE2909581959F4F0C947E
:100320009201BB27FB015527AA27880F991FAA1FF7
:10033000A41710F0A41B83955051B9F7A05DAA3300
:1003400008F0A95DA193009779F7B111B1931192CB
:10035000CB010C94AB01DC01FC01672F7191772379
:10036000E1F7329704C07C916D9370836291AE1770
:0A037000BF07C8F30895F894FFCF0B
:10037A001B630054696D703A20002030003A300047
:02038A003A0037
:00000001FF
