:100000000C9434000C9451000C9451000C94510049
:100010000C9451000C9451000C9451000C9451001C
:100020000C9451000C9451000C9451000C9451000C
:100030000C9451000C9451000C9409010C94510043
:100040000C9451000C9451000C9451000C944E01EE
:100050000C9451000C9451000C9451000C945100DC
:100060000C9451000C94510011241FBECFEFD8E026
:10007000DEBFCDBF11E0A0E0B1E0E2E5F3E002C0F9
:1000800005900D92A831B107D9F721E0A8E1B1E0C0
:1000900001C01D92A83EB207E1F70E9453000C94E4
:1000A000A7010C9400000E946E0087E690E00E9479
:1000B0003B0180E091E00E945D010E947300F9CF56
:1000C00084B5826084BD89EF87BD85B5836085BDB9
:1000D000EEE6F0E08081826080830895F8940E94CB
:1000E00060007894089580911C0190911D014AE070
:1000F00064E871E00E94720180911A0190911B01E5
:100100004AE060E271E00E9472018BE091E00E949F
:100110005D0180911C0190911D01CC9770F0809140
:100120001A0190911B01019690931B0180931A0173
:1001300010921D0110921C01089580911C01909154
:100140001D010A97B8F480911A0190911B010A973A
:1001500088F481E191E00E945D0180E291E00E94DB
:100160005D0184E191E00E945D0184E891E00E94DC
:100170005D01089580911C0190911D010A9798F4EA
:1001800080911A0190911B010A9768F080E291E03A
:100190000E945D0184E191E00E945D0184E891E0AC
:1001A0000E945D01089580911C0190911D010A97A4
:1001B000B8F080911A0190911B010A9788F481E1AF
:1001C00091E00E945D0180E291E00E945D018FE07C
:1001D00091E00E945D0184E891E00E945D01089534
:1001E00080911C0190911D010A9790F080911A0155
:1001F00090911B010A9760F080E291E00E945D01FE
:100200008FE091E00E945D0184E891E00E945D0131
:1002100008951F920F920FB60F9211242F938F9370
:100220009F93F89481E08093190180911E01909131
:100230001F01019690931F0180931E0180911E0162
:1002400090911F01883E934068F080911C0190912D
:100250001D01019690931D0180931C0110921F01B6
:1002600010921E0178949F918F912F910F900FBE45
:100270000F901F9018959093C5008093C400E1ECF7
:10028000F0E0808188618083808180628083E2ECFD
:10029000F0E080818E608083789408951F920F92A1
:1002A0000FB60F9211248F9381E0809318018F91E4
:1002B0000F900FBE0F901F901895FC010FC020915A
:1002C0001801213059F480911901813039F490934B
:1002D000C600319610921801109219019081911167
:1002E000EECF0895BB274A3031F4992322F4BDE2C2
:1002F000909581959F4F0C947E01BB27FB0155275C
:10030000AA27880F991FAA1FA41710F0A41B839572
:100310005051B9F7A05DAA3308F0A95DA1930097E9
:1003200079F7B111B1931192CB010C949701DC01D3
:10033000FC01672F71917723E1F7329704C07C911C
:100340006D9370836291AE17BF07C8F30895F89458
:02035000FFCFDD
:100352001B5B313B31481B5B324A0054696D703A7A
:08036200002030003A300000D9
:00000001FF
