S00F000050726F6A6563742E737265633E
S11300000C9434000C945D010C947B010C9451000D
S11300100C9451000C9451000C9451000C94510018
S11300200C9451000C9451000C9451000C94510008
S11300300C9451000C9451000C9414010C94510034
S11300400C9451000C9451000C9451000C945100E8
S11300500C9451000C9451000C9451000C945100D8
S11300600C9451000C94510011241FBECFEFD8E022
S1130070DEBFCDBF11E0A0E0B1E0ECECF4E002C0E3
S113008005900D92AA30B107D9F721E0AAE0B1E0BA
S113009001C01D92A231B207E1F70E94B8010C948D
S11300A064020C940000FC01408121E030E002C0B5
S11300B0220F331F6A95E2F7242B20830895FC0155
S11300C0908121E030E002C0220F331F6A95E2F7ED
S11300D0209529232083089580910A0180FD05C07D
S11300E060E085E290E00E945300809110019091BD
S11300F011010197A9F460E085E290E00E945300A9
S113010061E085E290E00E94530062E085E290E0C5
S11301100E94530063E085E290E00E94530014C003
S113012060E085E290E00E945F0061E085E290E09B
S11301300E945F0062E085E290E00E945F0063E05D
S113014085E290E00E945F0080910A0190910B018A
S113015020910C0130910D01821B930B049724F024
S113016010921101109210010895DF92EF92FF9204
S11301700F931F93CF93DF93CDB7DEB72A970FB6B4
S1130180F894DEBF0FBECDBF8AE0E0E0F1E0DE010F
S1130190119601900D928A95E1F701E010E0D12CBF
S11301A02DC0F801EE0FFF1F81E090E08C0F9D1F22
S11301B0E80FF91FE080F1803E2D2227032E000C6A
S11301C0440B550B60E074E284EF90E00E9423023C
S11301D02A3F3105B4F489EF8E9D90018F9D300D37
S11301E01124032E000C440B550B60E074E284EFE1
S11301F090E00E942302D22E0F5F1F4F063011059C
S113020084F285B5846085BDDA94D7BC2A960FB68E
S1130210F894DEBF0FBECDBFDF91CF911F910F9138
S1130220FF90EF90DF9008951F920F920FB60F92F8
S113023011242F933F934F935F936F937F938F93E7
S11302409F93AF93BF93EF93FF93F89460910E0144
S113025070910F016F5F7F4F70930F0160930E01D8
S1130260072E000C880B990B0E94BF012FEF3FEF64
S113027049E753E40E94FA0188236CF080910A0153
S113028090910B01019690930B0180930A011092B7
S11302900F0110920E017894FF91EF91BF91AF91ED
S11302A09F918F917F916F915F914F913F912F918A
S11302B00F900FBE0F901F9018951F920F920FB6BC
S11302C00F9211248F939F93F89481E090E0909380
S11302D011018093100180910A0190910B01909378
S11302E00D0180930C0178949F918F910F900FBE14
S11302F00F901F9018951F920F920FB60F92112412
S1130300F894109211011092100178940F900FBE7E
S11303100F901F9018958FE084B915B88AB18C603E
S11303208AB98BB18C608BB9089584B5826084BD21
S11303300E94B500EEE6F0E080818260808308953B
S1130340E9E6F0E080818F6080838DB383608DBBAC
S11303508CB38CBBE8E6F0E0808180830895F89448
S11303600E948B010E94A0010E9495017894089537
S11303700E94AF010E946C00FDCFE89409C097FB76
S11303803EF490958095709561957F4F8F4F9F4F68
S11303909923A9F0F92F96E9BB279395F6958795AC
S11303A077956795B795F111F8CFFAF4BB0F11F46F
S11303B060FF1BC06F5F7F4F8F4F9F4F16C0882316
S11303C011F096E911C0772321F09EE8872F762F4C
S11303D005C0662371F096E8862F70E060E02AF08D
S11303E09A95660F771F881FDAF7880F9695879579
S11303F097F908950E94FF0108F48FEF0895990F6B
S11304000008550FAA0BE0E8FEEF16161706E807DA
S1130410F907C0F012161306E407F50798F0621BFB
S1130420730B840B950B39F40A2661F0232B242BD0
S1130430252B21F408950A2609F4A140A6958FEFEF
S1130440811D811D0895052E97FB1EF400940E94C2
S11304503A0257FD07D00E94420207FC03D04EF433
S11304600C943A0250954095309521953F4F4F4F4B
S11304705F4F089590958095709561957F4F8F4F4C
S11304809F4F0895A1E21A2EAA1BBB1BFD010DC0AC
S1130490AA1FBB1FEE1FFF1FA217B307E407F50730
S11304A020F0A21BB30BE40BF50B661F771F881F0C
S11304B0991F1A9469F760957095809590959B01A2
S10F04C0AC01BD01CF010895F894FFCFFA
S10D04CC01000800400000010004D4
S9030000FC
