S00F000050726F6A6563742E737265633E
S11300000C9434000C9446000C9446000C94460066
S11300100C9446000C9446000C9446000C94460044
S11300200C9446000C9446000C9446000C94460034
S11300300C9446000C9446000C9468010C94460001
S11300400C9446000C9446000C9446000C94460014
S11300500C9446000C9446000C9446000C94460004
S11300600C9446000C94460011241FBECFEFD8E038
S1130070DEBFCDBF21E0A0E0B1E001C01D92AC33F2
S1130080B207E1F70E94B2010C942D020C94000017
S113009095B181E0982795B92FEF33ED90E3215086
S11300A030409040E1F700C0000095B1892785B940
S11300B0089595B182E0982795B92FEF33ED90E339
S11300C0215030409040E1F700C0000095B18927ED
S11300D085B9089595B184E0982795B92FEF33ED4C
S11300E090E3215030409040E1F700C0000095B10A
S11300F0892785B90895FC0109950895AF92BF92A7
S1130100CF92DF92EF92FF920F93FC0160834183C1
S113011022830383C482D582E682F782B186A086D5
S1130120809106019091070190930301809302014D
S1130130CF010F91FF90EF90DF90CF90BF90AF90E1
S11301400895CF93DF931092090110920801C0E043
S1130150D0E028C09C01220F331F220F331F220F2F
S1130160331FFC01EE0FFF1FE20FF31FE65FFE4F8C
S11301702081222391F09C01220F331F220F331F71
S1130180220F331FFC01EE0FFF1FE20FF31FE65F88
S1130190FE4F2181213009F42196019690930901A3
S11301A0809308018091080190910901853091059F
S11301B08CF2209709F47CC0109209011092080176
S11301C06FC0C901880F991F880F991F880F991F45
S11301D0F901EE0FFF1FE80FF91FE65FFE4F4481A0
S11301E05581668177818091060190910701092EDE
S11301F0000CAA0BBB0B481759076A077B0709F0C9
S113020046C0F901EE0FFF1F220F331F220F331FC9
S1130210220F331FE20FF31FE65FFE4F80859185A7
S11302200E947B008091080190910901FC01EE0F6E
S1130230FF1F9C01220F331F220F331F220F331F76
S1130240E20FF31FE65FFE4F22E02183228121307B
S113025081F4FC01EE0FFF1F880F991F880F991F6F
S1130260880F991FE80FF91FE65FFE4F81E0818335
S11302700EC0FC01EE0FFF1F880F991F880F991FF6
S1130280880F991FE80FF91FE65FFE4F11828091D6
S11302900801909109010196909309018093080146
S11302A020910801309109012C173D070CF489CFE6
S11302B0DF91CF91089580910401909105010197F8
S11302C031F410920501109204010E94A1000895D6
S11302D01F920F920FB60F9211248F939F93F8944D
S11302E080910601909107010196909307018093F4
S11302F0060181E090E090930501809304018091D0
S113030000019091010101969093010180930001F5
S113031078949F918F910F900FBE0F901F90189516
S11303208FE084B915B88AB18C608AB98BB18C60BE
S11303308BB90895E9E6F0E080818F6080838DB306
S113034083608DBB8CB38CBBE8E6F0E08081808356
S11303500895F8940E9490010E949A010E941E023E
S113036078940895CF93DF93CDB7DEB72A970FB66D
S1130370F894DEBF0FBECDBF0E94A9010E942902DE
S11303800F2EF8E4AF2EF0E0BF2EF02D0F2EF8EB79
S1130390CF2EFBE0DF2EE12CF12CF02D00E021E04C
S11303A041E061E0CE0101960E947E008AE0FE01F8
S11303B03196AAE0B1E001900D928A95E1F70F2EF3
S11303C0F9E5AF2EF0E0BF2EF02D0F2EF0E7CF2E83
S11303D0F7E1DF2EE12CF12CF02D21E041E062E089
S11303E0CE0101960E947E008AE0FE013196A4E1CE
S11303F0B1E001900D928A95E1F70F2EFAE6AF2E47
S1130400F0E0BF2EF02D0F2EF8E2CF2EF3E2DF2E18
S1130410E12CF12CF02D21E041E063E0CE010196C6
S11304200E947E008AE0FE013196AEE1B1E00190C7
S11304300D928A95E1F70E945B01FDCF84B582603D
S113044084BD89EF87BDEEE6F0E080818260808321
S1110450089585B5836085BD0895F894FFCFA7
S9030000FC
