:100000000C9434000C9446000C9446000C9446006A
:100010000C9446000C9446000C9446000C94460048
:100020000C9446000C9446000C9446000C94460038
:100030000C9446000C9446000C9466010C94460007
:100040000C9446000C9446000C9446000C94460018
:100050000C9446000C9446000C9446000C94460008
:100060000C9446000C94460011241FBECFEFD8E03C
:10007000DEBFCDBF21E0A0E0B1E001C01D92AB34F6
:10008000B207E1F70E94A2010C941F020C94000039
:1000900095B181E0982795B92FEF39E698E1215085
:1000A00030409040E1F700C0000095B1892785B944
:1000B000089595B182E0982795B92FEF39E698E138
:1000C000215030409040E1F700C0000095B18927F1
:1000D00085B9089595B184E0982795B92FEF39E651
:1000E00098E1215030409040E1F700C0000095B108
:1000F000892785B90895FC01099508958F929F92EB
:10010000AF92BF92CF92DF92EF92FF920F931F9325
:10011000CF93DF93CDB7DEB7FC01608341832283A9
:10012000E382F48205831683A782B086C186D286D5
:100130009486838680910601909107019093030134
:1001400080930201CF01DF91CF911F910F91FF901A
:10015000EF90DF90CF90BF90AF909F908F900895D9
:100160001F93CF93DF931092090110920801C0E012
:10017000D0E01CC02DE0289FF001299FF00D112434
:10018000E65FFE4F2081222361F02DE0289FF001E1
:10019000299FF00D1124E65FFE4F2181213009F4E3
:1001A000219601969093090180930801809108019E
:1001B0009091090185309105ECF2209709F475C002
:1001C0008091000190910101019709F06EC0109299
:1001D00009011092080161C08DE0829FF001839FA8
:1001E000F00D1124E65FFE4F83819481A581B681D5
:1001F0000196A11DB11D83839483A583B683478196
:1002000050856185728584179507A607B707E1F5C4
:100210001DE0129FF001139FF00D1124E65FFE4FC9
:10022000838594850E947B0080910801909109014B
:10023000189FF001199FF00D1124E65FFE4F22E098
:1002400021832281213059F42DE0289FF001299F3C
:10025000F00D1124E65FFE4F21E0218309C02DE05F
:10026000289FF001299FF00D1124E65FFE4F1182B7
:100270002DE0289FF001299FF00D1124E65FFE4F2D
:1002800013821482158216828091080190910901CF
:100290000196909309018093080120910801309103
:1002A00009012C173D070CF497CFDF91CF911F91D7
:1002B00008958091040190910501019731F4109205
:1002C0000501109204010E94B00008951F920F9240
:1002D0000FB60F9211248F939F93F89481E090E0D2
:1002E0009093050180930401909301018093000194
:1002F00078949F918F910F900FBE0F901F9018953B
:100300008FE084B915B88AB18C608AB98BB18C60E2
:100310008BB90895E9E6F0E080818F6080838DB32A
:1003200083608DBB8CB38CBBE8E6F0E0808180837A
:100330000895F8940E9480010E948A010E94100290
:1003400078940895CF93DF93CDB7DEB72D970FB68E
:10035000F894DEBF0FBECDBF0E9499010E941B0220
:100360000F2EF8E48F2EF0E09F2EF02D0F2EF0EDE3
:10037000AF2EF7E0BF2EC12CD12CF02DE12CF12CAB
:10038000870121E041E061E0CE0101960E947E00FC
:100390008DE0FE013196AAE0B1E001900D928A95C0
:1003A000E1F70F2EF9E58F2EF0E09F2EF02D0F2EA6
:1003B000F0E1AF2EF7E2BF2EC12CD12CF02D21E0C1
:1003C00041E062E0CE0101960E947E008DE0FE01D8
:1003D0003196A7E1B1E001900D928A95E1F70F2ED9
:1003E000FAE68F2EF0E09F2EF02D0F2EF8E8AF2EBC
:1003F000F3E1BF2EC12CD12CF02D20E041E063E0D1
:10040000CE0101960E947E008DE0FE013196A4E2AD
:10041000B1E001900D928A95E1F70E945901FDCF5C
:1004200084B5826084BD89EF87BDEEE6F0E080810F
:1004300082608083089585B5836085BD0895F894B2
:02044000FFCFEC
:00000001FF
