S00F000050726F6A6563742E737265633E
S11300000C9434000C9446000C9446000C94460066
S11300100C9446000C9446000C9446000C94460044
S11300200C9446000C9446000C9446000C94460034
S11300300C9446000C9446000C9448000C94460022
S11300400C9446000C9446000C9446000C94460014
S11300500C9446000C9446000C9446000C94460004
S11300600C9446000C94460011241FBECFEFD8E038
S1130070DEBFCDBF21E0A0E0B1E001C01D92A230FF
S1130080B207E1F70E9483000C9497000C940000DF
S11300901F920F920FB60F9211248F939F93F8948F
S11300A08091000190910101019690930101809348
S11300B0000178949F918F910F900FBE0F901F9025
S11300C018958FE084B915B88AB18C608AB98BB160
S11300D08C608BB90895E9E6F0E080818F608083BD
S11300E08DB383608DBB8CB38CBBE8E6F0E080817C
S11300F080830895F8940E9461000E946B000E941E
S11301008800789408950E947A000E949300FFCF9B
S113011084B5826084BD89EF87BDEEE6F0E080811E
S113012082608083089585B5836085BD0895F894C1
S1050130FFCFFB
S9030000FC
