S00F000050726F6A6563742E737265633E
S11300000C9434000C9446000C9446000C94460066
S11300100C9446000C9446000C9446000C94460044
S11300200C9446000C9446000C9446000C94460034
S11300300C9446000C9446000C949C000C944600CE
S11300400C9446000C9446000C9446000C94460014
S11300500C9446000C9446000C9446000C94460004
S11300600C9446000C94460011241FBECFEFD8E038
S1130070DEBFCDBF21E0A0E0B1E001C01D92AD33F1
S1130080B207E1F70E94DD000C94F3000C94000029
S113009095B181E0892785B9089588E490E00E94AC
S11300A04800109205011092040105C00196909336
S11300B0050180930401809104019091050185302C
S11300C09105A4F32BE0289FF001299FF00D112442
S11300D0EA5FFE4F2281223009F52BE0289FF001D0
S11300E0299FF00D1124EA5FFE4F238134812130D2
S11300F0310559F42BE0289FF001299FF00D1124BC
S1130100EA5FFE4F81E0828308952BE0289FF0018F
S1130110299FF00D1124EA5FFE4F12820895809109
S1130120000190910101019731F4109201011092A4
S113013000010E944D0008951F920F920FB60F9276
S113014011248F939F93F89480910201909103015D
S11301500196909303018093020181E090E09093D3
S113016001018093000178949F918F910F900FBEAD
S11301700F901F9018958FE084B915B88AB18C60E0
S11301808AB98BB18C608BB90895E9E6F0E080817F
S11301908F6080838DB383608DBB8CB38CBBE8E6AA
S11301A0F0E0808180830895F8940E94BB000E944F
S11301B0C5000E94E400789408950E94D4000E942F
S11301C0EF000E948F00FDCF84B5826084BD89EF6B
S11301D087BDEEE6F0E0808182608083089585B576
S10D01E0836085BD0895F894FFCFF5
S9030000FC
