:100000000C9434000C9446000C9446000C9446006A
:100010000C9446000C9446000C9446000C94460048
:100020000C9446000C9446000C9446000C94460038
:100030000C9446000C9446000C946E010C944600FF
:100040000C9446000C9446000C9446000C94460018
:100050000C9446000C9446000C9446000C94460008
:100060000C9446000C94460011241FBECFEFD8E03C
:10007000DEBFCDBF21E0A0E0B1E001C01D92A734FA
:10008000B207E1F70E94AA010C9445020C9400000B
:1000900095B181E0982795B92FEF39E698E1215085
:1000A00030409040E1F700C0000095B1892785B944
:1000B000089595B182E0982795B92FEF39E698E138
:1000C000215030409040E1F700C0000095B18927F1
:1000D00085B9089595B184E0982795B92FEF39E651
:1000E00098E1215030409040E1F700C0000095B108
:1000F000892785B9089595B188E0982795B92FEF9C
:1001000039E698E1215030409040E1F700C000000E
:1001100095B1892785B90895FC01099508958F92B5
:100120009F92AF92BF92CF92DF92EF92FF920F9386
:100130001F93CF93DF93CDB7DEB7FC01608341837C
:100140002283E382F48205831683A782B086C18668
:10015000D28694868386DF91CF911F910F91FF9075
:10016000EF90DF90CF90BF90AF909F908F900895C9
:100170001F93CF93DF931092050110920401C0E00A
:10018000D0E010C02DE0289FF001299FF00D112430
:10019000EA5FFE4F2081211121960196909305017F
:1001A00080930401809104019091050185309105AF
:1001B0004CF3209709F481C08091000190910101D6
:1001C000019709F07AC010920501109204016DC0E8
:1001D0008DE0829FF001839FF00D1124EA5FFE4FB6
:1001E00083819481A581B6810196A11DB11D838370
:1001F0009483A583B6834781508561857285841772
:100200009507A607B70709F047C08DE0829FF00168
:10021000839FF00D1124EA5FFE4F81818130E1F56B
:100220001DE0129FF001139FF00D1124EA5FFE4FB5
:10023000838594850E948C00809104019091050132
:10024000189FF001199FF00D1124EA5FFE4F22E084
:1002500021832281213059F42DE0289FF001299F2C
:10026000F00D1124EA5FFE4F21E0218309C02DE04B
:10027000289FF001299FF00D1124EA5FFE4F1182A3
:100280002DE0289FF001299FF00D1124EA5FFE4F19
:1002900013821482158216828091040190910501C7
:1002A00001969093050180930401209104013091FF
:1002B0000501C217D3070CF08BCFDF91CF911F91AF
:1002C00008958091020190910301019731F41092F9
:1002D0000301109202010E94B80008951F920F922C
:1002E0000FB60F9211248F939F93F89481E090E0C2
:1002F0009093030180930201909301018093000188
:1003000078949F918F910F900FBE0F901F9018952A
:100310008FE084B915B88AB18C608AB98BB18C60D2
:100320008BB90895E9E6F0E080818F6080838DB31A
:1003300083608DBB8CB38CBBE8E6F0E0808180836A
:100340000895F8940E9488010E9492010E9436024A
:1003500078940895CF93DF93CDB7DEB72D970FB67E
:10036000F894DEBF0FBECDBF0E94A1010E944102E2
:100370000F2EF8E48F2EF0E09F2EF02D0F2EF0EDD3
:10038000AF2EF7E0BF2EC12CD12CF02DE12CF12C9B
:10039000870121E041E061E0CE0101960E948F00DB
:1003A0008DE0FE013196A6E0B1E001900D928A95B4
:1003B000E1F70F2EF9E58F2EF0E09F2EF02D0F2E96
:1003C000F8EBAF2EFBE0BF2EC12CD12CF02D20E09E
:1003D00041E062E0CE0101960E948F008DE0FE01B7
:1003E0003196A3E1B1E001900D928A95E1F70F2ECD
:1003F000FAE68F2EF0E09F2EF02D0F2EF8E8AF2EAC
:10040000F3E1BF2EC12CD12CF02D21E041E063E0BF
:10041000CE0101960E948F008DE0FE013196A0E290
:10042000B1E001900D928A95E1F70F2EFBE78F2E38
:10043000F0E09F2EF02D0F2EF0E1AF2EF7E2BF2E51
:10044000C12CD12CF02D21E041E064E0CE010196D9
:100450000E948F008DE0FE013196ADE2B1E0019087
:100460000D928A95E1F70E946101FDCF84B582600B
:1004700084BD89EF87BDEEE6F0E0808182608083F5
:0E048000089585B5836085BD0895F894FFCF7B
:00000001FF
