S00B00005350492E737265632D
S11300000C9434000C9451000C9451000C94510045
S11300100C9451000C9451000C9451000C94510018
S11300200C9451000C9451000C9451000C94510008
S11300300C9451000C9451000C9406010C94510042
S11300400C9451000C9451000C9451000C944B01ED
S11300500C9451000C9451000C9451000C945100D8
S11300600C9451000C94510011241FBECFEFD8E022
S1130070DEBFCDBF11E0A0E0B1E0EEE5F3E002C0E9
S113008005900D92A234B107D9F721E0A2E4B1E0C2
S113009001C01D92A136B207E1F70E9453000C94EF
S11300A0AD010C9400000E946A0087E690E00E9473
S11300B038010E946F00FDCF84B5826084BD89EF52
S11300C087BD85B5836085BDEEE6F0E08081826002
S11300D080830895F8940E945C0078940895809138
S11300E0490190914A014AE067E571E00E94780174
S11300F080914701909148014AE06DE471E00E94CB
S113010078018091490190914A01CC9738F140914E
S1130110490150914A019A01A9E8B8E80E9469018D
S113012096958795929582958F7089279F708927D8
S11301306CE3689F9001699F300D1124CA01821BF2
S1130140930B90934A0180934901809147019091C8
S1130150480101969093480180934701809146019C
S1130160813009F052C080E091E00E945A018EE390
S113017091E00E945A0183E091E00E945A0186E1D5
S113018091E00E945A0189E191E00E945A01809114
S11301904701909148010A9748F482E291E00E9455
S11301A05A018DE491E00E945A0104C08DE491E06B
S11301B00E945A018091490190914A01892B79F05A
S11301C08091490190914A010B9748F481E291E0B2
S11301D00E945A0187E591E00E945A0108C084E216
S11301E091E00E945A0187E591E00E945A0186E25B
S11301F091E00E945A018BE291E00E945A018CE343
S113020091E00E945A011092460108951F920F92A4
S11302100FB60F9211242F938F939F93F89480918C
S11302204B0190914C01019690934C0180934B01AA
S113023080914B0190914C01883E934080F08091D5
S1130240490190914A01019690934A018093490192
S113025010924C0110924B0181E0809346017894F6
S11302609F918F912F910F900FBE0F901F90189513
S11302709093C5008093C400E1ECF0E08081886134
S113028080838081806A8083E2ECF0E080818E60EC
S11302908083789408951F920F920FB60F921124C1
S11302A08F9381E0809345018F910F900FBE0F9043
S11302B01F901895FC0109C020914501213029F4B3
S11302C09093C60031961092450190819111F4CF1C
S11302D00895A29FB001B39FC001A39F700D811D1B
S11302E01124911DB29F700D811D1124911D08953B
S11302F0BB274A3031F4992322F4BDE290958195CD
S11303009F4F0C948401BB27FB015527AA27880F14
S1130310991FAA1FA41710F0A41B83955051B9F775
S1130320A05DAA3308F0A95DA193009779F7B111F4
S1130330B1931192CB010C949D01DC01FC01672F58
S113034071917723E1F7329704C07C916D937083A8
S11103506291AE17BF07C8F30895F894FFCF6B
S113035E1B6300207C2D2D2D2D2D2D2D2D2D2D2D82
S113036E2D2D7C0A0D00207C002054696D703A20DE
S113037E003A30003A00207C0A0D00207C2D2D2DF1
S113038E2D2D2D2D2D2D2D2D2D2D7C000A0D0A0DEF
S105039E000059
S9030000FC
