S00F000050726F6A6563742E737265633E
S11300000C9434000C94F2000C9410010C944600EF
S11300100C9446000C9446000C9446000C94460044
S11300200C9446000C9446000C9446000C94460034
S11300300C9446000C9446000C94A9000C944600C1
S11300400C9446000C9446000C9446000C94460014
S11300500C9446000C9446000C9446000C94460004
S11300600C9446000C94460011241FBECFEFD8E038
S1130070DEBFCDBF21E0A0E0B1E001C01D92A830F9
S1130080B207E1F70E9442010C94C0010C940000F5
S1130090FC01408121E030E002C0220F331F6A9549
S11300A0E2F7242B20830895FC01908121E030E0C5
S11300B002C0220F331F6A95E2F72095292320837B
S11300C0089580910601909107010197E1F40E943F
S11300D0520162E085E290E00E94480063E085E21C
S11300E090E00E9448008091000180FD06C060E01D
S11300F085E290E00E94540012C060E085E290E046
S11301000E9448000CC00E94560162E085E290E023
S11301100E94540063E085E290E00E9454008091C4
S11301200001909101012091020130910301821B91
S1130130930B06976CF060E085E290E00E94540017
S11301401092010110920001109207011092060111
S113015008951F920F920FB60F9211242F933F937D
S11301604F935F936F937F938F939F93AF93BF93BB
S1130170EF93FF93F89460910401709105016F5F10
S11301807F4F7093050160930401072E000C880BC8
S1130190990B0E945C012FEF3FEF49E754E40E9462
S11301A0970188236CF080910001909101010196E0
S11301B090930101809300011092050110920401B3
S11301C07894FF91EF91BF91AF919F918F917F911F
S11301D06F915F914F913F912F910F900FBE0F90B0
S11301E01F9018951F920F920FB60F9211248F93A0
S11301F09F93F89481E090E0909307018093060127
S11302008091000190910101909303018093020178
S113021078949F918F910F900FBE0F901F90189517
S11302201F920F920FB60F921124F89410920701A7
S11302301092060178940F900FBE0F901F9018959E
S11302408FE084B915B88AB18C608AB98BB18C609F
S11302508BB90895E9E6F0E080818F6080838DB3E7
S113026083608DBB8CB38CBBE8E6F0E08081808337
S11302700895F8940E9420010E942A010E944701D7
S1130280789408950E9439010E946100FDCF84B5DD
S1130290826084BD89EF87BDEEE6F0E080818260F4
S11302A08083089585B5836085BD089585B5887F6D
S11302B085BD0895E89409C097FB3EF49095809518
S11302C0709561957F4F8F4F9F4F9923A9F0F92F18
S11302D096E9BB279395F695879577956795B79596
S11302E0F111F8CFFAF4BB0F11F460FF1BC06F5F7C
S11302F07F4F8F4F9F4F16C0882311F096E911C08E
S1130300772321F09EE8872F762F05C0662371F0AE
S113031096E8862F70E060E02AF09A95660F771FC2
S1130320881FDAF7880F9695879597F908950E94A4
S11303309C0108F48FEF0895990F0008550FAA0B3C
S1130340E0E8FEEF16161706E807F907C0F01216E4
S11303501306E407F50798F0621B730B840B950BE7
S113036039F40A2661F0232B242B252B21F408953C
S11303700A2609F4A140A6958FEF811D811D0895D9
S1070380F894FFCF1B
S9030000FC
