S00B00005350492E737265632D
S11300000C9434000C9451000C9451000C94510045
S11300100C9451000C9451000C9451000C94510018
S11300200C9451000C9451000C9451000C94510008
S11300300C9451000C9451000C9425010C94510023
S11300400C9451000C9451000C94B6010C9498013A
S11300500C9451000C9451000C9451000C945100D8
S11300600C9451000C94510011241FBECFEFD8E022
S1130070DEBFCDBF11E0A0E0B1E0E0E3F4E002C0F8
S113008005900D92A237B107D9F721E0A2E7B1E0BC
S113009001C01D92A139B207E1F70E94FC000C9443
S11300A016020C94000080E091E00E94A7010895DC
S11300B085E091E00E94A701089580917401813048
S11300C051F48BE391E00E94A70185B1816085B969
S11300D00E945300089586E491E00E94A70185B12F
S11300E08E7F85B90E9453000895823379F0853359
S11300F099F08133D9F482E591E00E94A7010E942E
S113010058000E9453001092720108950E945300F7
S113011081E080937201089581E0909174019111BE
S113012080E0809374010E945D00089585E591E06C
S11301300E94A7010E9458000E94530008950E9443
S1130140570180917301813009F055C0809172018B
S1130150813009F050C082E591E00E94A70183E656
S113016091E00E94A70180917701909178014AE083
S113017065E871E00E94E10180917501909176013A
S11301804AE06BE771E00E94E10180917501909172
S113019076010A9748F48EE691E00E94A7018BE766
S11301A091E00E94A70104C08BE791E00E94A7019F
S11301B080917701909178018091770190917801F5
S11301C00A9748F48DE691E00E94A70185E891E042
S11301D00E94A70108C080E791E00E94A70185E87A
S11301E091E00E94A70180E691E00E94A7010E948D
S11301F053001092730108950E941D0187E690E058
S11302000E94850182E591E00E94A7010E945800A6
S11302100E9453000E94C5010E949F00FBCF84B539
S1130220826084BD89EF87BD85B5836085BDEEE6B8
S1130230F0E08081826080830895F89481E084B93D
S113024015B80E940F01789408951F920F920FB66B
S11302500F9211242F938F939F93F8948091790197
S113026090917A01019690937A018093790180911B
S1130270790190917A01883E934080F080917701D2
S11302809091780101969093780180937701109270
S11302907A011092790181E08093730178949F919F
S11302A08F912F910F900FBE0F901F9018958091F2
S11302B0770190917801CC9738F140917701509172
S11302C078019A01A9E8B8E80E94D2019695879529
S11302D0929582958F7089279F7089276CE3689F18
S11302E09001699F300D1124CA01821B930B9093D6
S11302F07801809377018091750190917601019640
S1130300909376018093750108959093C50080932E
S1130310C400E1ECF0E08081886180838081806AA0
S11303208083E2ECF0E080818E608083789408958D
S11303301F920F920FB60F9211248F9381E0809336
S113034090018F910F900FBE0F901F901895FC0194
S113035009C020919001213029F49093C600319670
S11303601092900190819111F4CF08951F920F92F1
S11303700FB60F9211248F9381E080938F018F9198
S11303800F900FBE0F901F90189580918F018130B0
S113039041F4E6ECF0E0808180830E9475001092C5
S11303A08F010895A29FB001B39FC001A39F700D58
S11303B0811D1124911DB29F700D811D1124911D69
S11303C00895BB274A3031F4992322F4BDE2909575
S11303D081959F4F0C94ED01BB27FB015527AA275C
S11303E0880F991FAA1FA41710F0A41B83955051BE
S11303F0B9F7A05DAA3308F0A95DA193009779F736
S1130400B111B1931192CB010C940602DC01FC01F1
S1130410672F71917723E1F7329704C07C916D9334
S113042070836291AE17BF07C8F30895F894FFCFA5
S11304300A0D3E3E000A0D417061736120746173C0
S113044074613A0A0D20312E204D656E69750A0DCE
S113045020322E2054696D700A0D20352E204C4513
S113046044204F4E2F4F46460A0D000A0D4C45447A
S1130470204F4E0A0D000A0D4C4544204F46460AB3
S11304800D001B63000A0D494E434F52454354214E
S11304900A0D000A0D2054696D703A20003A3000AC
S10504A03A001C
S9030000FC
