S00B00005350492E737265632D
S11300000C9434000C9451000C9451000C94510045
S11300100C9451000C9451000C9451000C94510018
S11300200C9451000C9451000C9451000C94510008
S11300300C9451000C9451000C942B010C9451001D
S11300400C9451000C9451000C94BC010C949E012E
S11300500C9451000C9451000C9451000C945100D8
S11300600C9451000C94510011241FBECFEFD8E022
S1130070DEBFCDBF11E0A0E0B1E0E8E3F4E002C0F0
S113008005900D92AE37B107D9F721E0AEE7B1E0A4
S113009001C01D92AD39B207E1F70E9400010C9432
S11300A01A020C94000080E091E00E94AD010895D2
S11300B085E091E00E94AD01089580918001813036
S11300C051F48BE391E00E94AD0185B1816085B963
S11300D00E945300089586E491E00E94AD0185B129
S11300E08E7F85B90E9453000895823399F0853339
S11300F0B9F08133F9F482E591E00E94AD0185E520
S113010091E00E94AD010E9458000E945300109299
S11301107E0108950E94530081E080937E0108953A
S113012081E090918001911180E0809380010E9490
S11301305D00089581E691E00E94AD010E9458009F
S11301400E94530008950E945D0180917F018130D7
S113015009F055C080917E01813009F050C082E5DC
S113016091E00E94AD018FE691E00E94AD01809183
S11301708301909184014AE061E971E00E94E50104
S113018080918101909182014AE067E871E00E94C8
S1130190E50180918101909182010A9748F48AE7F0
S11301A091E00E94AD0187E891E00E94AD0104C096
S11301B087E891E00E94AD018091830190918401D0
S11301C080918301909184010A9748F489E791E032
S11301D00E94AD0181E991E00E94AD0108C08CE765
S11301E091E00E94AD0181E991E00E94AD018CE6AD
S11301F091E00E94AD010E94530010927F01089586
S11302000E94230167E670E080E090E00E948B0189
S113021082E591E00E94AD010E9458000E945300C3
S11302200E94CB010E94A300FBCF84B5826084BDF1
S113023089EF87BD85B5836085BDEEE6F0E08081FA
S1130240826080830895F89481E084B915B80E948F
S11302501501789408951F920F920FB60F921124EE
S11302602F938F939F93F8948091850190918601A9
S113027001969093860180938501809185019091E8
S11302808601883E934080F080918301909184019F
S113029001969093840180938301109286011092B9
S11302A0850181E080937F0178949F918F912F91B4
S11302B00F900FBE0F901F9018958091830190911D
S11302C08401CC9738F140918301509184019A01C3
S11302D0A9E8B8E80E94D6019695879592958295EB
S11302E08F7089279F7089276CE3689F9001699FAD
S11302F0300D1124CA01821B930B909384018093C7
S113030083018091810190918201019690938201F1
S11303108093810108959093C5008093C400E1EC1B
S1130320F0E08081886180838081806A8083E2EC50
S1130330F0E080818E608083789408951F920F92FC
S11303400FB60F9211248F9381E080939C018F91BB
S11303500F900FBE0F901F901895FC0109C02091BB
S11303609C01213029F49093C600319610929C018F
S113037090819111F4CF08951F920F920FB60F92AE
S113038011248F9381E080939B018F910F900FBE76
S11303900F901F90189580919B01813031F48091CA
S11303A0C6000E94750010929B010895A29FB0019F
S11303B0B39FC001A39F700D811D1124911DB29F95
S11303C0700D811D1124911D0895BB274A3031F40D
S11303D0992322F4BDE2909581959F4F0C94F101ED
S11303E0BB27FB015527AA27880F991FAA1FA4170B
S11303F010F0A41B83955051B9F7A05DAA3308F0FF
S1130400A95DA193009779F7B111B1931192CB0132
S11304100C940A02DC01FC01672F71917723E1F748
S1130420329704C07C916D9370836291AE17BF07BD
S10B0430C8F30895F894FFCF0E
S11304380A0D3E3E000A0D417061736120746173B8
S113044874613A0A0D20312E204D656E69750A0DC6
S113045820322E2054696D700A0D20352E204C450B
S113046844204F4E2F4F46460A0D000A0D4C454472
S1130478204F4E0A0D000A0D4C4544204F46460AAB
S11304880D001B63000A0D20417363756E730A0D1A
S1130498000A0D494E434F52454354210A0D000AA0
S11104A80D2054696D703A20003A30003A007D
S9030000FC
