:100000000C9434000C948A010C94A8010C945100B7
:100010000C9451000C9451000C9451000C9451001C
:100020000C9451000C9451000C9451000C9451000C
:100030000C9451000C9451000C9441010C9451000B
:100040000C9451000C9451000C9451000C945100EC
:100050000C9451000C9451000C9451000C945100DC
:100060000C9451000C94510011241FBECFEFD8E026
:10007000DEBFCDBF11E0A0E0B1E0E2ECF4E002C0F1
:1000800005900D92AA30B107D9F721E0AAE0B1E0BE
:1000900001C01D92A231B207E1F70E9417010C9432
:1000A0005F020C940000FC01408121E030E002C0BE
:1000B000220F331F6A95E2F7242B20830895FC0159
:1000C000908121E030E002C0220F331F6A95E2F7F1
:1000D000209529232083089580910A0180FD05C081
:1000E00060E085E290E00E945300809110019091C1
:1000F00011010197A9F460E085E290E00E945300AD
:1001000061E085E290E00E94530062E085E290E0C9
:100110000E94530063E085E290E00E94530014C007
:1001200060E085E290E00E945F0061E085E290E09F
:100130000E945F0062E085E290E00E945F0063E061
:1001400085E290E00E945F0080910A0190910B018E
:1001500020910C0130910D01821B930B079724F025
:1001600010921101109210010895CF92DF92EF9238
:10017000FF920F931F93CF93DF93CDB7DEB72A97EC
:100180000FB6F894DEBF0FBECDBF8AE0E0E0F1E02D
:10019000DE01119601900D928A95E1F701E010E0E1
:1001A000E12CF12C30C0F801EE0FFF1F81E090E050
:1001B0008C0F9D1FE80FF91FC080D1803C2D222796
:1001C000032E000C440B550B60E074E284EF90E0CA
:1001D0000E941E02283E3340CCF487EE93E0C89E76
:1001E0009001C99E300DD89E300D1124032E000CB5
:1001F000440B550B60E074E284EF90E00E941E0215
:1002000079010F5F1F4F0630110568F2C701019792
:100210002A960FB6F894DEBF0FBECDBFDF91CF9107
:100220001F910F91FF90EF90DF90CF9008958FE096
:1002300084B915B88AB18C608AB98BB18C608BB9DE
:10024000F894E9E6F0E080818F6080838DB383606D
:100250008DBB8CB38CBBE8E6F0E08081808384B5F5
:10026000826084BD85B5836085BD0E94B50087BD71
:10027000EEE6F0E080818260808378940E946C00DA
:10028000FDCF1F920F920FB60F9211242F933F9321
:100290004F935F936F937F938F939F93AF93BF938E
:1002A000EF93FF93F89460910E0170910F016F5FCF
:1002B0007F4F70930F0160930E01072E000C880B87
:1002C000990B0E94BA012FEF3FEF49E754E40E94D7
:1002D000F50188236CF080910A0190910B01019641
:1002E00090930B0180930A0110920F0110920E015E
:1002F0007894FF91EF91BF91AF919F918F917F91F2
:100300006F915F914F913F912F910F900FBE0F9082
:100310001F9018951F920F920FB60F9211248F9372
:100320009F93F89481E090E09093110180931001E5
:1003300080910A0190910B0190930D0180930C0123
:1003400078949F918F910F900FBE0F901F901895EA
:100350001F920F920FB60F921124F8941092110170
:100360001092100178940F900FBE0F901F90189567
:10037000E89409C097FB3EF490958095709561953F
:100380007F4F8F4F9F4F9923A9F0F92F96E9BB27F5
:100390009395F695879577956795B795F111F8CF71
:1003A000FAF4BB0F11F460FF1BC06F5F7F4F8F4FDC
:1003B0009F4F16C0882311F096E911C0772321F0D2
:1003C0009EE8872F762F05C0662371F096E8862F6A
:1003D00070E060E02AF09A95660F771F881FDAF7C1
:1003E000880F9695879597F908950E94FA0108F469
:1003F0008FEF0895990F0008550FAA0BE0E8FEEF64
:1004000016161706E807F907C0F012161306E407D8
:10041000F50798F0621B730B840B950B39F40A26D1
:1004200061F0232B242B252B21F408950A2609F4AF
:10043000A140A6958FEF811D811D0895052E97FB84
:100440001EF400940E94350257FD07D00E943D0221
:1004500007FC03D04EF40C9435025095409530952E
:1004600021953F4F4F4F5F4F089590958095709520
:1004700061957F4F8F4F9F4F0895A1E21A2EAA1BBF
:10048000BB1BFD010DC0AA1FBB1FEE1FFF1FA21744
:10049000B307E407F50720F0A21BB30BE40BF50B41
:1004A000661F771F881F991F1A9469F760957095CA
:1004B000809590959B01AC01BD01CF010895F89402
:0204C000FFCF6C
:0A04C20001000800400000010004E2
:00000001FF
